{
  "abi": [
    {
      "inputs": [
        {
          "internalType": "address",
          "name": "_addr",
          "type": "address"
        }
      ],
      "name": "miningRate",
      "outputs": [
        {
          "internalType": "uint256",
          "name": "rate",
          "type": "uint256"
        }
      ],
      "stateMutability": "nonpayable",
      "type": "function"
    }
  ],
  "bytecode": "6080604052348015600f57600080fd5b50609e8061001e6000396000f3fe6080604052348015600f57600080fd5b506004361060285760003560e01c80636e0ca71a14602d575b600080fd5b605060048036036020811015604157600080fd5b50356001600160a01b03166062565b60408051918252519081900360200190f35b5060649056fea2646970667358221220520b1fec0ace5e7425a9e3f565a0de4ffd0ed16972500f40a570151fc46cc3b164736f6c634300060c0033",
  "bytecodeSha1": "a538cbe9eb1715b8260371cd83b5172a7dca3094",
  "compiler": {
    "evm_version": "istanbul",
    "optimizer": {
      "enabled": true,
      "runs": 200
    },
    "version": "0.6.12+commit.27d51765"
  },
  "contractName": "BadgePool",
  "language": "Solidity",
  "natspec": {
    "kind": "dev",
    "methods": {},
    "version": 1
  },
  "opcodes": "PUSH1 0x80 PUSH1 0x40 MSTORE CALLVALUE DUP1 ISZERO PUSH1 0xF JUMPI PUSH1 0x0 DUP1 REVERT JUMPDEST POP PUSH1 0x4 CALLDATASIZE LT PUSH1 0x28 JUMPI PUSH1 0x0 CALLDATALOAD PUSH1 0xE0 SHR DUP1 PUSH4 0x6E0CA71A EQ PUSH1 0x2D JUMPI JUMPDEST PUSH1 0x0 DUP1 REVERT JUMPDEST PUSH1 0x50 PUSH1 0x4 DUP1 CALLDATASIZE SUB PUSH1 0x20 DUP2 LT ISZERO PUSH1 0x41 JUMPI PUSH1 0x0 DUP1 REVERT JUMPDEST POP CALLDATALOAD PUSH1 0x1 PUSH1 0x1 PUSH1 0xA0 SHL SUB AND PUSH1 0x62 JUMP JUMPDEST PUSH1 0x40 DUP1 MLOAD SWAP2 DUP3 MSTORE MLOAD SWAP1 DUP2 SWAP1 SUB PUSH1 0x20 ADD SWAP1 RETURN JUMPDEST POP PUSH1 0x64 SWAP1 JUMP INVALID LOG2 PUSH5 0x6970667358 0x22 SLT KECCAK256 MSTORE SIGNEXTEND 0x1F 0xEC EXP 0xCE 0x5E PUSH21 0x25A9E3F565A0DE4FFD0ED16972500F40A570151FC4 PUSH13 0xC3B164736F6C634300060C0033 ",
  "sha1": "07c4bc66b6e5eb59159db30de003737a734edc6a",
  "source": "// SPDX-License-Identifier: MIT\n\npragma solidity 0.6.12;\n\ninterface IBadgePool {\n    // Return mining rate percent\n    function miningRate(address _addr) external returns (uint256 rate);\n}\n\ncontract BadgePool is IBadgePool {\n    function miningRate(address _addr) external override returns (uint256 rate){\n        return 100;\n    }\n}\n",
  "sourcePath": "contracts/BadgePool.sol",
  "type": "contract"
}